{
  "_format": "hh-sol-artifact-1",
  "contractName": "Betting",
  "sourceName": "contracts/Betting.sol",
  "abi": [
    {
      "inputs": [
        {
          "internalType": "contract NewToken",
          "name": "token",
          "type": "address"
        },
        {
          "internalType": "uint256",
          "name": "maxNumPlayers",
          "type": "uint256"
        }
      ],
      "stateMutability": "nonpayable",
      "type": "constructor"
    },
    {
      "anonymous": false,
      "inputs": [
        {
          "indexed": true,
          "internalType": "address",
          "name": "previousOwner",
          "type": "address"
        },
        {
          "indexed": true,
          "internalType": "address",
          "name": "newOwner",
          "type": "address"
        }
      ],
      "name": "OwnershipTransferred",
      "type": "event"
    },
    {
      "inputs": [
        {
          "internalType": "uint256",
          "name": "value",
          "type": "uint256"
        },
        {
          "internalType": "uint256",
          "name": "choice",
          "type": "uint256"
        }
      ],
      "name": "addFunds",
      "outputs": [],
      "stateMutability": "payable",
      "type": "function"
    },
    {
      "inputs": [
        {
          "internalType": "uint256",
          "name": "choice",
          "type": "uint256"
        }
      ],
      "name": "disburseFunds",
      "outputs": [],
      "stateMutability": "nonpayable",
      "type": "function"
    },
    {
      "inputs": [],
      "name": "owner",
      "outputs": [
        {
          "internalType": "address",
          "name": "",
          "type": "address"
        }
      ],
      "stateMutability": "view",
      "type": "function"
    },
    {
      "inputs": [],
      "name": "renounceOwnership",
      "outputs": [],
      "stateMutability": "nonpayable",
      "type": "function"
    },
    {
      "inputs": [
        {
          "internalType": "address",
          "name": "newOwner",
          "type": "address"
        }
      ],
      "name": "transferOwnership",
      "outputs": [],
      "stateMutability": "nonpayable",
      "type": "function"
    }
  ],
  "bytecode": "0x60806040523480156200001157600080fd5b50604051620016053803806200160583398181016040528101906200003791906200026d565b620000576200004b620000e860201b60201c565b620000f060201b60201c565b33600160006101000a81548173ffffffffffffffffffffffffffffffffffffffff021916908373ffffffffffffffffffffffffffffffffffffffff16021790555081600760006101000a81548173ffffffffffffffffffffffffffffffffffffffff021916908373ffffffffffffffffffffffffffffffffffffffff160217905550806003819055505050620002b4565b600033905090565b60008060009054906101000a900473ffffffffffffffffffffffffffffffffffffffff169050816000806101000a81548173ffffffffffffffffffffffffffffffffffffffff021916908373ffffffffffffffffffffffffffffffffffffffff1602179055508173ffffffffffffffffffffffffffffffffffffffff168173ffffffffffffffffffffffffffffffffffffffff167f8be0079c531659141344cd1fd0a4f28419497f9722a3daafe3b4186f6b6457e060405160405180910390a35050565b600080fd5b600073ffffffffffffffffffffffffffffffffffffffff82169050919050565b6000620001e682620001b9565b9050919050565b6000620001fa82620001d9565b9050919050565b6200020c81620001ed565b81146200021857600080fd5b50565b6000815190506200022c8162000201565b92915050565b6000819050919050565b620002478162000232565b81146200025357600080fd5b50565b60008151905062000267816200023c565b92915050565b60008060408385031215620002875762000286620001b4565b5b600062000297858286016200021b565b9250506020620002aa8582860162000256565b9150509250929050565b61134180620002c46000396000f3fe60806040526004361061004a5760003560e01c8063715018a61461004f57806385f45250146100665780638da5cb5b14610082578063cc212a48146100ad578063f2fde38b146100d6575b600080fd5b34801561005b57600080fd5b506100646100ff565b005b610080600480360381019061007b9190610a42565b610113565b005b34801561008e57600080fd5b50610097610522565b6040516100a49190610ac3565b60405180910390f35b3480156100b957600080fd5b506100d460048036038101906100cf9190610ade565b61054b565b005b3480156100e257600080fd5b506100fd60048036038101906100f89190610b37565b6107f8565b005b61010761087b565b61011160006108f9565b565b60035460025410610159576040517f08c379a000000000000000000000000000000000000000000000000000000000815260040161015090610be7565b60405180910390fd5b3360006001905060005b6002548110156101ee578273ffffffffffffffffffffffffffffffffffffffff166006600083815260200190815260200160002060000160009054906101000a900473ffffffffffffffffffffffffffffffffffffffff1673ffffffffffffffffffffffffffffffffffffffff16036101db57600091505b80806101e690610c36565b915050610163565b508061022f576040517f08c379a000000000000000000000000000000000000000000000000000000000815260040161022690610cf0565b60405180910390fd5b6001830361026e5783600560008282546102499190610d10565b9250508190555083600460008282546102629190610d10565b925050819055506102d0565b600083036102945783600460008282546102889190610d10565b925050819055506102cf565b6040517f08c379a00000000000000000000000000000000000000000000000000000000081526004016102c690610e28565b60405180910390fd5b5b83600760009054906101000a900473ffffffffffffffffffffffffffffffffffffffff1673ffffffffffffffffffffffffffffffffffffffff166370a08231336040518263ffffffff1660e01b815260040161032c9190610ac3565b602060405180830381865afa158015610349573d6000803e3d6000fd5b505050506040513d601f19601f8201168201806040525081019061036d9190610e5d565b10156103ae576040517f08c379a00000000000000000000000000000000000000000000000000000000081526004016103a590610efc565b60405180910390fd5b600760009054906101000a900473ffffffffffffffffffffffffffffffffffffffff1673ffffffffffffffffffffffffffffffffffffffff166323b872dd33600160009054906101000a900473ffffffffffffffffffffffffffffffffffffffff16876040518463ffffffff1660e01b815260040161042f93929190610f2b565b6020604051808303816000875af115801561044e573d6000803e3d6000fd5b505050506040513d601f19601f820116820180604052508101906104729190610f9a565b503360066000600254815260200190815260200160002060000160006101000a81548173ffffffffffffffffffffffffffffffffffffffff021916908373ffffffffffffffffffffffffffffffffffffffff160217905550836006600060025481526020019081526020016000206001018190555082600660006002548152602001908152602001600020600201819055506002600081548092919061051790610c36565b919050555050505050565b60008060009054906101000a900473ffffffffffffffffffffffffffffffffffffffff16905090565b61055361087b565b60035460025414610599576040517f08c379a000000000000000000000000000000000000000000000000000000000815260040161059090611039565b60405180910390fd5b6000600182036105ad576005549050610606565b600082036105ca576105c36004546005546109bd565b9050610605565b6040517f08c379a00000000000000000000000000000000000000000000000000000000081526004016105fc90611117565b60405180910390fd5b5b600061061f6106196004546103e86109d3565b836109e9565b905060005b6003548110156107da578360066000838152602001908152602001600020600201540361077157600760009054906101000a900473ffffffffffffffffffffffffffffffffffffffff1673ffffffffffffffffffffffffffffffffffffffff166323b872dd600160009054906101000a900473ffffffffffffffffffffffffffffffffffffffff166006600085815260200190815260200160002060000160009054906101000a900473ffffffffffffffffffffffffffffffffffffffff1661070e6107066006600088815260200190815260200160002060010154886109d3565b6103e86109e9565b6040518463ffffffff1660e01b815260040161072c93929190610f2b565b6020604051808303816000875af115801561074b573d6000803e3d6000fd5b505050506040513d601f19601f8201168201806040525081019061076f9190610f9a565b505b60006006600083815260200190815260200160002060000160006101000a81548173ffffffffffffffffffffffffffffffffffffffff021916908373ffffffffffffffffffffffffffffffffffffffff16021790555080806107d290610c36565b915050610624565b50600060028190555060006005819055506000600481905550505050565b61080061087b565b600073ffffffffffffffffffffffffffffffffffffffff168173ffffffffffffffffffffffffffffffffffffffff160361086f576040517f08c379a0000000000000000000000000000000000000000000000000000000008152600401610866906111a9565b60405180910390fd5b610878816108f9565b50565b6108836109ff565b73ffffffffffffffffffffffffffffffffffffffff166108a1610522565b73ffffffffffffffffffffffffffffffffffffffff16146108f7576040517f08c379a00000000000000000000000000000000000000000000000000000000081526004016108ee90611215565b60405180910390fd5b565b60008060009054906101000a900473ffffffffffffffffffffffffffffffffffffffff169050816000806101000a81548173ffffffffffffffffffffffffffffffffffffffff021916908373ffffffffffffffffffffffffffffffffffffffff1602179055508173ffffffffffffffffffffffffffffffffffffffff168173ffffffffffffffffffffffffffffffffffffffff167f8be0079c531659141344cd1fd0a4f28419497f9722a3daafe3b4186f6b6457e060405160405180910390a35050565b600081836109cb9190611235565b905092915050565b600081836109e19190611269565b905092915050565b600081836109f791906112da565b905092915050565b600033905090565b600080fd5b6000819050919050565b610a1f81610a0c565b8114610a2a57600080fd5b50565b600081359050610a3c81610a16565b92915050565b60008060408385031215610a5957610a58610a07565b5b6000610a6785828601610a2d565b9250506020610a7885828601610a2d565b9150509250929050565b600073ffffffffffffffffffffffffffffffffffffffff82169050919050565b6000610aad82610a82565b9050919050565b610abd81610aa2565b82525050565b6000602082019050610ad86000830184610ab4565b92915050565b600060208284031215610af457610af3610a07565b5b6000610b0284828501610a2d565b91505092915050565b610b1481610aa2565b8114610b1f57600080fd5b50565b600081359050610b3181610b0b565b92915050565b600060208284031215610b4d57610b4c610a07565b5b6000610b5b84828501610b22565b91505092915050565b600082825260208201905092915050565b7f416c6c2062657474657273206465706f73697465642074686569722066756e6460008201527f7320616c72656164790000000000000000000000000000000000000000000000602082015250565b6000610bd1602983610b64565b9150610bdc82610b75565b604082019050919050565b60006020820190508181036000830152610c0081610bc4565b9050919050565b7f4e487b7100000000000000000000000000000000000000000000000000000000600052601160045260246000fd5b6000610c4182610a0c565b91507fffffffffffffffffffffffffffffffffffffffffffffffffffffffffffffffff8203610c7357610c72610c07565b5b600182019050919050565b7f4265747465722068617320706c616365642061206265742070726576696f757360008201527f6c79000000000000000000000000000000000000000000000000000000000000602082015250565b6000610cda602283610b64565b9150610ce582610c7e565b604082019050919050565b60006020820190508181036000830152610d0981610ccd565b9050919050565b6000610d1b82610a0c565b9150610d2683610a0c565b9250828201905080821115610d3e57610d3d610c07565b5b92915050565b7f506c6561736520656e73757265207468617420796f752063616c6c206164644660008201527f756e6473207769746820612063686f6963652076616c7565206f66206569746860208201527f65722031206f7220302c207768657265203120696d706c69657320686967686560408201527f72207468616e207468726573686f6c6420616e64203020696d706c696573206c60608201527f6f77657200000000000000000000000000000000000000000000000000000000608082015250565b6000610e12608483610b64565b9150610e1d82610d44565b60a082019050919050565b60006020820190508181036000830152610e4181610e05565b9050919050565b600081519050610e5781610a16565b92915050565b600060208284031215610e7357610e72610a07565b5b6000610e8184828501610e48565b91505092915050565b7f506c6561736520656e73757265207468617420796f752068617665207375666660008201527f696369656e74204e6577546f6b656e0000000000000000000000000000000000602082015250565b6000610ee6602f83610b64565b9150610ef182610e8a565b604082019050919050565b60006020820190508181036000830152610f1581610ed9565b9050919050565b610f2581610a0c565b82525050565b6000606082019050610f406000830186610ab4565b610f4d6020830185610ab4565b610f5a6040830184610f1c565b949350505050565b60008115159050919050565b610f7781610f62565b8114610f8257600080fd5b50565b600081519050610f9481610f6e565b92915050565b600060208284031215610fb057610faf610a07565b5b6000610fbe84828501610f85565b91505092915050565b7f4265747465727320686176652079657420746f206465706f736974207468656960008201527f72204e6577546f6b656e2066756e647300000000000000000000000000000000602082015250565b6000611023603083610b64565b915061102e82610fc7565b604082019050919050565b6000602082019050818103600083015261105281611016565b9050919050565b7f506c6561736520656e73757265207468617420796f752063616c6c206469736260008201527f7572736546756e64732077697468206569746865722030206f7220312c20776860208201527f657265203120696d706c69657320686967686572207468616e2074687265736860408201527f6f6c6420616e64203020696d706c696573206c6f7765722e0000000000000000606082015250565b6000611101607883610b64565b915061110c82611059565b608082019050919050565b60006020820190508181036000830152611130816110f4565b9050919050565b7f4f776e61626c653a206e6577206f776e657220697320746865207a65726f206160008201527f6464726573730000000000000000000000000000000000000000000000000000602082015250565b6000611193602683610b64565b915061119e82611137565b604082019050919050565b600060208201905081810360008301526111c281611186565b9050919050565b7f4f776e61626c653a2063616c6c6572206973206e6f7420746865206f776e6572600082015250565b60006111ff602083610b64565b915061120a826111c9565b602082019050919050565b6000602082019050818103600083015261122e816111f2565b9050919050565b600061124082610a0c565b915061124b83610a0c565b925082820390508181111561126357611262610c07565b5b92915050565b600061127482610a0c565b915061127f83610a0c565b925082820261128d81610a0c565b915082820484148315176112a4576112a3610c07565b5b5092915050565b7f4e487b7100000000000000000000000000000000000000000000000000000000600052601260045260246000fd5b60006112e582610a0c565b91506112f083610a0c565b925082611300576112ff6112ab565b5b82820490509291505056fea264697066735822122089bbca5844a40d21e1dddd28bcc9ff998034082521dc95856cce4e6b4882f1cb64736f6c63430008110033",
  "linkReferences": {},
  "deployedLinkReferences": {}
}