{
  "_format": "hh-sol-artifact-1",
  "contractName": "Betting",
  "sourceName": "contracts/Betting.sol",
  "abi": [
    {
      "inputs": [
        {
          "internalType": "address",
          "name": "token",
          "type": "address"
        },
        {
          "internalType": "address",
          "name": "oracle",
          "type": "address"
        },
        {
          "internalType": "uint256",
          "name": "refreshInterval",
          "type": "uint256"
        }
      ],
      "stateMutability": "nonpayable",
      "type": "constructor"
    },
    {
      "anonymous": false,
      "inputs": [
        {
          "indexed": true,
          "internalType": "address",
          "name": "previousOwner",
          "type": "address"
        },
        {
          "indexed": true,
          "internalType": "address",
          "name": "newOwner",
          "type": "address"
        }
      ],
      "name": "OwnershipTransferred",
      "type": "event"
    },
    {
      "inputs": [
        {
          "internalType": "uint256",
          "name": "value",
          "type": "uint256"
        },
        {
          "internalType": "uint256",
          "name": "choice",
          "type": "uint256"
        }
      ],
      "name": "addFunds",
      "outputs": [],
      "stateMutability": "payable",
      "type": "function"
    },
    {
      "inputs": [
        {
          "internalType": "bytes",
          "name": "",
          "type": "bytes"
        }
      ],
      "name": "checkUpkeep",
      "outputs": [
        {
          "internalType": "bool",
          "name": "upkeepNeeded",
          "type": "bool"
        },
        {
          "internalType": "bytes",
          "name": "performData",
          "type": "bytes"
        }
      ],
      "stateMutability": "view",
      "type": "function"
    },
    {
      "inputs": [
        {
          "internalType": "uint256",
          "name": "choice",
          "type": "uint256"
        }
      ],
      "name": "disburseFunds",
      "outputs": [],
      "stateMutability": "nonpayable",
      "type": "function"
    },
    {
      "inputs": [],
      "name": "getBetPrice",
      "outputs": [
        {
          "internalType": "uint256",
          "name": "",
          "type": "uint256"
        }
      ],
      "stateMutability": "view",
      "type": "function"
    },
    {
      "inputs": [],
      "name": "getNumPlayers",
      "outputs": [
        {
          "internalType": "uint256",
          "name": "",
          "type": "uint256"
        }
      ],
      "stateMutability": "view",
      "type": "function"
    },
    {
      "inputs": [],
      "name": "getTotalFunds",
      "outputs": [
        {
          "internalType": "uint256",
          "name": "",
          "type": "uint256"
        }
      ],
      "stateMutability": "view",
      "type": "function"
    },
    {
      "inputs": [],
      "name": "getUserBetChoice",
      "outputs": [
        {
          "internalType": "uint256",
          "name": "",
          "type": "uint256"
        },
        {
          "internalType": "uint256",
          "name": "",
          "type": "uint256"
        }
      ],
      "stateMutability": "view",
      "type": "function"
    },
    {
      "inputs": [],
      "name": "owner",
      "outputs": [
        {
          "internalType": "address",
          "name": "",
          "type": "address"
        }
      ],
      "stateMutability": "view",
      "type": "function"
    },
    {
      "inputs": [
        {
          "internalType": "bytes",
          "name": "",
          "type": "bytes"
        }
      ],
      "name": "performUpkeep",
      "outputs": [],
      "stateMutability": "nonpayable",
      "type": "function"
    },
    {
      "inputs": [],
      "name": "renounceOwnership",
      "outputs": [],
      "stateMutability": "nonpayable",
      "type": "function"
    },
    {
      "inputs": [
        {
          "internalType": "address",
          "name": "newOwner",
          "type": "address"
        }
      ],
      "name": "transferOwnership",
      "outputs": [],
      "stateMutability": "nonpayable",
      "type": "function"
    }
  ],
  "bytecode": "0x60a06040523480156200001157600080fd5b5060405162001f9f38038062001f9f833981810160405281019062000037919062000350565b620000576200004b6200022660201b60201c565b6200022e60201b60201c565b33600160006101000a81548173ffffffffffffffffffffffffffffffffffffffff021916908373ffffffffffffffffffffffffffffffffffffffff16021790555082600960006101000a81548173ffffffffffffffffffffffffffffffffffffffff021916908373ffffffffffffffffffffffffffffffffffffffff16021790555081600a60006101000a81548173ffffffffffffffffffffffffffffffffffffffff021916908373ffffffffffffffffffffffffffffffffffffffff160217905550600a60009054906101000a900473ffffffffffffffffffffffffffffffffffffffff1673ffffffffffffffffffffffffffffffffffffffff16638e15f4736040518163ffffffff1660e01b815260040160206040518083038186803b1580156200018357600080fd5b505afa15801562000198573d6000803e3d6000fd5b505050506040513d601f19601f82011682018060405250810190620001be9190620003a6565b600681905550620002086001620001e860065464174876e800620002f260201b62000c681760201c565b620001f49190620003d2565b6103e86200030a60201b62000c7e1760201c565b60078190555080608081815250504260058190555050505062000598565b600033905090565b60008060009054906101000a900473ffffffffffffffffffffffffffffffffffffffff169050816000806101000a81548173ffffffffffffffffffffffffffffffffffffffff021916908373ffffffffffffffffffffffffffffffffffffffff1602179055508173ffffffffffffffffffffffffffffffffffffffff168173ffffffffffffffffffffffffffffffffffffffff167f8be0079c531659141344cd1fd0a4f28419497f9722a3daafe3b4186f6b6457e060405160405180910390a35050565b600081836200030291906200042f565b905092915050565b600081836200031a919062000467565b905092915050565b600081519050620003338162000564565b92915050565b6000815190506200034a816200057e565b92915050565b6000806000606084860312156200036657600080fd5b6000620003768682870162000322565b9350506020620003898682870162000322565b92505060406200039c8682870162000339565b9150509250925092565b600060208284031215620003b957600080fd5b6000620003c98482850162000339565b91505092915050565b6000620003df82620004fc565b9150620003ec83620004fc565b9250827fffffffffffffffffffffffffffffffffffffffffffffffffffffffffffffffff0382111562000424576200042362000506565b5b828201905092915050565b60006200043c82620004fc565b91506200044983620004fc565b9250826200045c576200045b62000535565b5b828204905092915050565b60006200047482620004fc565b91506200048183620004fc565b9250817fffffffffffffffffffffffffffffffffffffffffffffffffffffffffffffffff0483118215151615620004bd57620004bc62000506565b5b828202905092915050565b6000620004d582620004dc565b9050919050565b600073ffffffffffffffffffffffffffffffffffffffff82169050919050565b6000819050919050565b7f4e487b7100000000000000000000000000000000000000000000000000000000600052601160045260246000fd5b7f4e487b7100000000000000000000000000000000000000000000000000000000600052601260045260246000fd5b6200056f81620004c8565b81146200057b57600080fd5b50565b6200058981620004fc565b81146200059557600080fd5b50565b6080516119e4620005bb60003960008181610339015261052d01526119e46000f3fe60806040526004361061009c5760003560e01c806385f452501161006457806385f45250146101765780638da5cb5b14610192578063cc212a48146101bd578063db5ea892146101e6578063eb8bbd2814610211578063f2fde38b1461023c5761009c565b80631fdc3417146100a15780634585e33b146100cd57806355c9e926146100f65780636e04ff0d14610121578063715018a61461015f575b600080fd5b3480156100ad57600080fd5b506100b6610265565b6040516100c49291906116cb565b60405180910390f35b3480156100d957600080fd5b506100f460048036038101906100ef9190611110565b610337565b005b34801561010257600080fd5b5061010b61051d565b60405161011891906116b0565b60405180910390f35b34801561012d57600080fd5b5061014860048036038101906101439190611110565b610527565b6040516101569291906115c0565b60405180910390f35b34801561016b57600080fd5b50610174610576565b005b610190600480360381019061018b91906111a7565b61058a565b005b34801561019e57600080fd5b506101a7610952565b6040516101b49190611545565b60405180910390f35b3480156101c957600080fd5b506101e460048036038101906101df9190611155565b61097b565b005b3480156101f257600080fd5b506101fb610bd0565b60405161020891906116b0565b60405180910390f35b34801561021d57600080fd5b50610226610bda565b60405161023391906116b0565b60405180910390f35b34801561024857600080fd5b50610263600480360381019061025e91906110be565b610be4565b005b60008060005b60025481101561032a576008600082815260200190815260200160002060000160009054906101000a900473ffffffffffffffffffffffffffffffffffffffff1673ffffffffffffffffffffffffffffffffffffffff163373ffffffffffffffffffffffffffffffffffffffff16141561031757600860008281526020019081526020016000206001015460086000838152602001908152602001600020600201549250925050610333565b8080610322906118b1565b91505061026b565b50600080915091505b9091565b7f0000000000000000000000000000000000000000000000000000000000000000600554426103669190611802565b111561051957426005819055506000600a60009054906101000a900473ffffffffffffffffffffffffffffffffffffffff1673ffffffffffffffffffffffffffffffffffffffff16638e15f4736040518163ffffffff1660e01b815260040160206040518083038186803b1580156103dd57600080fd5b505afa1580156103f1573d6000803e3d6000fd5b505050506040513d601f19601f82011682018060405250810190610415919061117e565b6104256007546305f5e100610c7e565b1115610432576000610435565b60015b60ff16905061044381610c94565b600a60009054906101000a900473ffffffffffffffffffffffffffffffffffffffff1673ffffffffffffffffffffffffffffffffffffffff16638e15f4736040518163ffffffff1660e01b815260040160206040518083038186803b1580156104ab57600080fd5b505afa1580156104bf573d6000803e3d6000fd5b505050506040513d601f19601f820116820180604052508101906104e3919061117e565b60068190555061051160016104ff60065464174876e800610c68565b6105099190611721565b6103e8610c7e565b600781905550505b5050565b6000600254905090565b600060607f00000000000000000000000000000000000000000000000000000000000000006005544261055a9190611802565b1191506040518060200160405280600081525090509250929050565b61057e610ec0565b6105886000610f3e565b565b3360006001905060005b600254811015610620578273ffffffffffffffffffffffffffffffffffffffff166008600083815260200190815260200160002060000160009054906101000a900473ffffffffffffffffffffffffffffffffffffffff1673ffffffffffffffffffffffffffffffffffffffff16141561060d57600091505b8080610618906118b1565b915050610594565b5080610661576040517f08c379a000000000000000000000000000000000000000000000000000000000815260040161065890611630565b60405180910390fd5b60018314156106a157836004600082825461067c9190611721565b9250508190555083600360008282546106959190611721565b92505081905550610704565b60008314156106c85783600360008282546106bc9190611721565b92505081905550610703565b6040517f08c379a00000000000000000000000000000000000000000000000000000000081526004016106fa90611670565b60405180910390fd5b5b83600960009054906101000a900473ffffffffffffffffffffffffffffffffffffffff1673ffffffffffffffffffffffffffffffffffffffff166370a08231336040518263ffffffff1660e01b81526004016107609190611545565b60206040518083038186803b15801561077857600080fd5b505afa15801561078c573d6000803e3d6000fd5b505050506040513d601f19601f820116820180604052508101906107b0919061117e565b10156107f1576040517f08c379a00000000000000000000000000000000000000000000000000000000081526004016107e890611610565b60405180910390fd5b600960009054906101000a900473ffffffffffffffffffffffffffffffffffffffff1673ffffffffffffffffffffffffffffffffffffffff166323b872dd3330876040518463ffffffff1660e01b815260040161085093929190611560565b602060405180830381600087803b15801561086a57600080fd5b505af115801561087e573d6000803e3d6000fd5b505050506040513d601f19601f820116820180604052508101906108a291906110e7565b503360086000600254815260200190815260200160002060000160006101000a81548173ffffffffffffffffffffffffffffffffffffffff021916908373ffffffffffffffffffffffffffffffffffffffff1602179055508360086000600254815260200190815260200160002060010181905550826008600060025481526020019081526020016000206002018190555060026000815480929190610947906118b1565b919050555050505050565b60008060009054906101000a900473ffffffffffffffffffffffffffffffffffffffff16905090565b610983610ec0565b600060018214156109985760045490506109f2565b60008214156109b6576109af600354600454611002565b90506109f1565b6040517f08c379a00000000000000000000000000000000000000000000000000000000081526004016109e890611690565b60405180910390fd5b5b6000610a0b610a056003546103e8610c7e565b83610c68565b905060005b600254811015610bb2578360086000838152602001908152602001600020600201541415610b4957600960009054906101000a900473ffffffffffffffffffffffffffffffffffffffff1673ffffffffffffffffffffffffffffffffffffffff1663a9059cbb6008600084815260200190815260200160002060000160009054906101000a900473ffffffffffffffffffffffffffffffffffffffff16610ad8610ad0600860008781526020019081526020016000206001015487610c7e565b6103e8610c68565b6040518363ffffffff1660e01b8152600401610af5929190611597565b602060405180830381600087803b158015610b0f57600080fd5b505af1158015610b23573d6000803e3d6000fd5b505050506040513d601f19601f82011682018060405250810190610b4791906110e7565b505b60006008600083815260200190815260200160002060000160006101000a81548173ffffffffffffffffffffffffffffffffffffffff021916908373ffffffffffffffffffffffffffffffffffffffff1602179055508080610baa906118b1565b915050610a10565b50600060028190555060006004819055506000600381905550505050565b6000600754905090565b6000600354905090565b610bec610ec0565b600073ffffffffffffffffffffffffffffffffffffffff168173ffffffffffffffffffffffffffffffffffffffff161415610c5c576040517f08c379a0000000000000000000000000000000000000000000000000000000008152600401610c53906115f0565b60405180910390fd5b610c6581610f3e565b50565b60008183610c769190611777565b905092915050565b60008183610c8c91906117a8565b905092915050565b60006002541480610ca757506000600354145b15610cb157610ebd565b60006001821415610cc6576004549050610ce1565b6000821415610ce057610cdd600354600454611002565b90505b5b6000610cfa610cf46003546103e8610c7e565b83610c68565b905060005b600254811015610ea1578360086000838152602001908152602001600020600201541415610e3857600960009054906101000a900473ffffffffffffffffffffffffffffffffffffffff1673ffffffffffffffffffffffffffffffffffffffff1663a9059cbb6008600084815260200190815260200160002060000160009054906101000a900473ffffffffffffffffffffffffffffffffffffffff16610dc7610dbf600860008781526020019081526020016000206001015487610c7e565b6103e8610c68565b6040518363ffffffff1660e01b8152600401610de4929190611597565b602060405180830381600087803b158015610dfe57600080fd5b505af1158015610e12573d6000803e3d6000fd5b505050506040513d601f19601f82011682018060405250810190610e3691906110e7565b505b60006008600083815260200190815260200160002060000160006101000a81548173ffffffffffffffffffffffffffffffffffffffff021916908373ffffffffffffffffffffffffffffffffffffffff1602179055508080610e99906118b1565b915050610cff565b5060006002819055506000600481905550600060038190555050505b50565b610ec8611018565b73ffffffffffffffffffffffffffffffffffffffff16610ee6610952565b73ffffffffffffffffffffffffffffffffffffffff1614610f3c576040517f08c379a0000000000000000000000000000000000000000000000000000000008152600401610f3390611650565b60405180910390fd5b565b60008060009054906101000a900473ffffffffffffffffffffffffffffffffffffffff169050816000806101000a81548173ffffffffffffffffffffffffffffffffffffffff021916908373ffffffffffffffffffffffffffffffffffffffff1602179055508173ffffffffffffffffffffffffffffffffffffffff168173ffffffffffffffffffffffffffffffffffffffff167f8be0079c531659141344cd1fd0a4f28419497f9722a3daafe3b4186f6b6457e060405160405180910390a35050565b600081836110109190611802565b905092915050565b600033905090565b60008135905061102f81611969565b92915050565b60008151905061104481611980565b92915050565b60008083601f84011261105c57600080fd5b8235905067ffffffffffffffff81111561107557600080fd5b60208301915083600182028301111561108d57600080fd5b9250929050565b6000813590506110a381611997565b92915050565b6000815190506110b881611997565b92915050565b6000602082840312156110d057600080fd5b60006110de84828501611020565b91505092915050565b6000602082840312156110f957600080fd5b600061110784828501611035565b91505092915050565b6000806020838503121561112357600080fd5b600083013567ffffffffffffffff81111561113d57600080fd5b6111498582860161104a565b92509250509250929050565b60006020828403121561116757600080fd5b600061117584828501611094565b91505092915050565b60006020828403121561119057600080fd5b600061119e848285016110a9565b91505092915050565b600080604083850312156111ba57600080fd5b60006111c885828601611094565b92505060206111d985828601611094565b9150509250929050565b6111ec81611836565b82525050565b6111fb81611848565b82525050565b600061120c826116f4565b61121681856116ff565b935061122681856020860161187e565b61122f81611958565b840191505092915050565b6000611247602683611710565b91507f4f776e61626c653a206e6577206f776e657220697320746865207a65726f206160008301527f64647265737300000000000000000000000000000000000000000000000000006020830152604082019050919050565b60006112ad602f83611710565b91507f506c6561736520656e73757265207468617420796f752068617665207375666660008301527f696369656e74204e6577546f6b656e00000000000000000000000000000000006020830152604082019050919050565b6000611313602283611710565b91507f4265747465722068617320706c616365642061206265742070726576696f757360008301527f6c790000000000000000000000000000000000000000000000000000000000006020830152604082019050919050565b6000611379602083611710565b91507f4f776e61626c653a2063616c6c6572206973206e6f7420746865206f776e65726000830152602082019050919050565b60006113b9608483611710565b91507f506c6561736520656e73757265207468617420796f752063616c6c206164644660008301527f756e6473207769746820612063686f6963652076616c7565206f66206569746860208301527f65722031206f7220302c207768657265203120696d706c69657320686967686560408301527f72207468616e207468726573686f6c6420616e64203020696d706c696573206c60608301527f6f77657200000000000000000000000000000000000000000000000000000000608083015260a082019050919050565b6000611491607883611710565b91507f506c6561736520656e73757265207468617420796f752063616c6c206469736260008301527f7572736546756e64732077697468206569746865722030206f7220312c20776860208301527f657265203120696d706c69657320686967686572207468616e2074687265736860408301527f6f6c6420616e64203020696d706c696573206c6f7765722e00000000000000006060830152608082019050919050565b61153f81611874565b82525050565b600060208201905061155a60008301846111e3565b92915050565b600060608201905061157560008301866111e3565b61158260208301856111e3565b61158f6040830184611536565b949350505050565b60006040820190506115ac60008301856111e3565b6115b96020830184611536565b9392505050565b60006040820190506115d560008301856111f2565b81810360208301526115e78184611201565b90509392505050565b600060208201905081810360008301526116098161123a565b9050919050565b60006020820190508181036000830152611629816112a0565b9050919050565b6000602082019050818103600083015261164981611306565b9050919050565b600060208201905081810360008301526116698161136c565b9050919050565b60006020820190508181036000830152611689816113ac565b9050919050565b600060208201905081810360008301526116a981611484565b9050919050565b60006020820190506116c56000830184611536565b92915050565b60006040820190506116e06000830185611536565b6116ed6020830184611536565b9392505050565b600081519050919050565b600082825260208201905092915050565b600082825260208201905092915050565b600061172c82611874565b915061173783611874565b9250827fffffffffffffffffffffffffffffffffffffffffffffffffffffffffffffffff0382111561176c5761176b6118fa565b5b828201905092915050565b600061178282611874565b915061178d83611874565b92508261179d5761179c611929565b5b828204905092915050565b60006117b382611874565b91506117be83611874565b9250817fffffffffffffffffffffffffffffffffffffffffffffffffffffffffffffffff04831182151516156117f7576117f66118fa565b5b828202905092915050565b600061180d82611874565b915061181883611874565b92508282101561182b5761182a6118fa565b5b828203905092915050565b600061184182611854565b9050919050565b60008115159050919050565b600073ffffffffffffffffffffffffffffffffffffffff82169050919050565b6000819050919050565b60005b8381101561189c578082015181840152602081019050611881565b838111156118ab576000848401525b50505050565b60006118bc82611874565b91507fffffffffffffffffffffffffffffffffffffffffffffffffffffffffffffffff8214156118ef576118ee6118fa565b5b600182019050919050565b7f4e487b7100000000000000000000000000000000000000000000000000000000600052601160045260246000fd5b7f4e487b7100000000000000000000000000000000000000000000000000000000600052601260045260246000fd5b6000601f19601f8301169050919050565b61197281611836565b811461197d57600080fd5b50565b61198981611848565b811461199457600080fd5b50565b6119a081611874565b81146119ab57600080fd5b5056fea264697066735822122094085457fa104d6612749dfd0bf8ea5fec9acd63069fd741062b5ddf220f25bf64736f6c63430008000033",
  "linkReferences": {},
  "deployedLinkReferences": {}
}