{
  "_format": "hh-sol-artifact-1",
  "contractName": "Betting",
  "sourceName": "contracts/Betting.sol",
  "abi": [
    {
      "inputs": [
        {
          "internalType": "contract NewToken",
          "name": "token",
          "type": "address"
        },
        {
          "internalType": "uint256",
          "name": "maxNumPlayers",
          "type": "uint256"
        }
      ],
      "stateMutability": "nonpayable",
      "type": "constructor"
    },
    {
      "anonymous": false,
      "inputs": [
        {
          "indexed": true,
          "internalType": "address",
          "name": "previousOwner",
          "type": "address"
        },
        {
          "indexed": true,
          "internalType": "address",
          "name": "newOwner",
          "type": "address"
        }
      ],
      "name": "OwnershipTransferred",
      "type": "event"
    },
    {
      "inputs": [
        {
          "internalType": "uint256",
          "name": "value",
          "type": "uint256"
        },
        {
          "internalType": "uint256",
          "name": "choice",
          "type": "uint256"
        }
      ],
      "name": "addFunds",
      "outputs": [],
      "stateMutability": "payable",
      "type": "function"
    },
    {
      "inputs": [
        {
          "internalType": "uint256",
          "name": "choice",
          "type": "uint256"
        }
      ],
      "name": "disburseFunds",
      "outputs": [],
      "stateMutability": "nonpayable",
      "type": "function"
    },
    {
      "inputs": [],
      "name": "getNumPlayers",
      "outputs": [
        {
          "internalType": "uint256",
          "name": "",
          "type": "uint256"
        }
      ],
      "stateMutability": "view",
      "type": "function"
    },
    {
      "inputs": [],
      "name": "getTotalFunds",
      "outputs": [
        {
          "internalType": "uint256",
          "name": "",
          "type": "uint256"
        }
      ],
      "stateMutability": "view",
      "type": "function"
    },
    {
      "inputs": [],
      "name": "owner",
      "outputs": [
        {
          "internalType": "address",
          "name": "",
          "type": "address"
        }
      ],
      "stateMutability": "view",
      "type": "function"
    },
    {
      "inputs": [],
      "name": "renounceOwnership",
      "outputs": [],
      "stateMutability": "nonpayable",
      "type": "function"
    },
    {
      "inputs": [
        {
          "internalType": "address",
          "name": "newOwner",
          "type": "address"
        }
      ],
      "name": "transferOwnership",
      "outputs": [],
      "stateMutability": "nonpayable",
      "type": "function"
    }
  ],
  "bytecode": "0x60806040523480156200001157600080fd5b506040516200169b3803806200169b8339818101604052810190620000379190620001e2565b620000576200004b620000e860201b60201c565b620000f060201b60201c565b33600160006101000a81548173ffffffffffffffffffffffffffffffffffffffff021916908373ffffffffffffffffffffffffffffffffffffffff16021790555081600760006101000a81548173ffffffffffffffffffffffffffffffffffffffff021916908373ffffffffffffffffffffffffffffffffffffffff160217905550806003819055505050620002a9565b600033905090565b60008060009054906101000a900473ffffffffffffffffffffffffffffffffffffffff169050816000806101000a81548173ffffffffffffffffffffffffffffffffffffffff021916908373ffffffffffffffffffffffffffffffffffffffff1602179055508173ffffffffffffffffffffffffffffffffffffffff168173ffffffffffffffffffffffffffffffffffffffff167f8be0079c531659141344cd1fd0a4f28419497f9722a3daafe3b4186f6b6457e060405160405180910390a35050565b600081519050620001c58162000275565b92915050565b600081519050620001dc816200028f565b92915050565b60008060408385031215620001f657600080fd5b60006200020685828601620001b4565b92505060206200021985828601620001cb565b9150509250929050565b600062000230826200024b565b9050919050565b6000620002448262000223565b9050919050565b600073ffffffffffffffffffffffffffffffffffffffff82169050919050565b6000819050919050565b620002808162000237565b81146200028c57600080fd5b50565b6200029a816200026b565b8114620002a657600080fd5b50565b6113e280620002b96000396000f3fe6080604052600436106100705760003560e01c80638da5cb5b1161004e5780638da5cb5b146100d3578063cc212a48146100fe578063eb8bbd2814610127578063f2fde38b1461015257610070565b806355c9e92614610075578063715018a6146100a057806385f45250146100b7575b600080fd5b34801561008157600080fd5b5061008a61017b565b6040516100979190611137565b60405180910390f35b3480156100ac57600080fd5b506100b5610185565b005b6100d160048036038101906100cc9190610bc3565b610199565b005b3480156100df57600080fd5b506100e86105c9565b6040516100f59190610fe5565b60405180910390f35b34801561010a57600080fd5b5061012560048036038101906101209190610b71565b6105f2565b005b34801561013357600080fd5b5061013c6108b1565b6040516101499190611137565b60405180910390f35b34801561015e57600080fd5b5061017960048036038101906101749190610b1f565b6108bb565b005b6000600254905090565b61018d61093f565b61019760006109bd565b565b600354600254106101df576040517f08c379a00000000000000000000000000000000000000000000000000000000081526004016101d690611037565b60405180910390fd5b3360006001905060005b600254811015610275578273ffffffffffffffffffffffffffffffffffffffff166006600083815260200190815260200160002060000160009054906101000a900473ffffffffffffffffffffffffffffffffffffffff1673ffffffffffffffffffffffffffffffffffffffff16141561026257600091505b808061026d906112c0565b9150506101e9565b50806102b6576040517f08c379a00000000000000000000000000000000000000000000000000000000081526004016102ad906110b7565b60405180910390fd5b60018314156102f65783600560008282546102d19190611163565b9250508190555083600460008282546102ea9190611163565b92505081905550610359565b600083141561031d5783600460008282546103119190611163565b92505081905550610358565b6040517f08c379a000000000000000000000000000000000000000000000000000000000815260040161034f906110f7565b60405180910390fd5b5b83600760009054906101000a900473ffffffffffffffffffffffffffffffffffffffff1673ffffffffffffffffffffffffffffffffffffffff166370a08231336040518263ffffffff1660e01b81526004016103b59190610fe5565b60206040518083038186803b1580156103cd57600080fd5b505afa1580156103e1573d6000803e3d6000fd5b505050506040513d601f19601f820116820180604052508101906104059190610b9a565b1015610446576040517f08c379a000000000000000000000000000000000000000000000000000000000815260040161043d90611097565b60405180910390fd5b600760009054906101000a900473ffffffffffffffffffffffffffffffffffffffff1673ffffffffffffffffffffffffffffffffffffffff166323b872dd33600160009054906101000a900473ffffffffffffffffffffffffffffffffffffffff16876040518463ffffffff1660e01b81526004016104c793929190611000565b602060405180830381600087803b1580156104e157600080fd5b505af11580156104f5573d6000803e3d6000fd5b505050506040513d601f19601f820116820180604052508101906105199190610b48565b503360066000600254815260200190815260200160002060000160006101000a81548173ffffffffffffffffffffffffffffffffffffffff021916908373ffffffffffffffffffffffffffffffffffffffff16021790555083600660006002548152602001908152602001600020600101819055508260066000600254815260200190815260200160002060020181905550600260008154809291906105be906112c0565b919050555050505050565b60008060009054906101000a900473ffffffffffffffffffffffffffffffffffffffff16905090565b6105fa61093f565b60035460025414610640576040517f08c379a000000000000000000000000000000000000000000000000000000000815260040161063790611077565b60405180910390fd5b600060018214156106555760055490506106af565b60008214156106735761066c600454600554610a81565b90506106ae565b6040517f08c379a00000000000000000000000000000000000000000000000000000000081526004016106a590611117565b60405180910390fd5b5b60006106c86106c26004546103e8610a97565b83610aad565b905060005b60035481101561089357836006600083815260200190815260200160002060020154141561082a57600760009054906101000a900473ffffffffffffffffffffffffffffffffffffffff1673ffffffffffffffffffffffffffffffffffffffff166323b872dd600160009054906101000a900473ffffffffffffffffffffffffffffffffffffffff166006600085815260200190815260200160002060000160009054906101000a900473ffffffffffffffffffffffffffffffffffffffff166107b86107b0600660008881526020019081526020016000206001015488610a97565b6103e8610aad565b6040518463ffffffff1660e01b81526004016107d693929190611000565b602060405180830381600087803b1580156107f057600080fd5b505af1158015610804573d6000803e3d6000fd5b505050506040513d601f19601f820116820180604052508101906108289190610b48565b505b60006006600083815260200190815260200160002060000160006101000a81548173ffffffffffffffffffffffffffffffffffffffff021916908373ffffffffffffffffffffffffffffffffffffffff160217905550808061088b906112c0565b9150506106cd565b50600060028190555060006005819055506000600481905550505050565b6000600454905090565b6108c361093f565b600073ffffffffffffffffffffffffffffffffffffffff168173ffffffffffffffffffffffffffffffffffffffff161415610933576040517f08c379a000000000000000000000000000000000000000000000000000000000815260040161092a90611057565b60405180910390fd5b61093c816109bd565b50565b610947610ac3565b73ffffffffffffffffffffffffffffffffffffffff166109656105c9565b73ffffffffffffffffffffffffffffffffffffffff16146109bb576040517f08c379a00000000000000000000000000000000000000000000000000000000081526004016109b2906110d7565b60405180910390fd5b565b60008060009054906101000a900473ffffffffffffffffffffffffffffffffffffffff169050816000806101000a81548173ffffffffffffffffffffffffffffffffffffffff021916908373ffffffffffffffffffffffffffffffffffffffff1602179055508173ffffffffffffffffffffffffffffffffffffffff168173ffffffffffffffffffffffffffffffffffffffff167f8be0079c531659141344cd1fd0a4f28419497f9722a3daafe3b4186f6b6457e060405160405180910390a35050565b60008183610a8f9190611244565b905092915050565b60008183610aa591906111ea565b905092915050565b60008183610abb91906111b9565b905092915050565b600033905090565b600081359050610ada81611367565b92915050565b600081519050610aef8161137e565b92915050565b600081359050610b0481611395565b92915050565b600081519050610b1981611395565b92915050565b600060208284031215610b3157600080fd5b6000610b3f84828501610acb565b91505092915050565b600060208284031215610b5a57600080fd5b6000610b6884828501610ae0565b91505092915050565b600060208284031215610b8357600080fd5b6000610b9184828501610af5565b91505092915050565b600060208284031215610bac57600080fd5b6000610bba84828501610b0a565b91505092915050565b60008060408385031215610bd657600080fd5b6000610be485828601610af5565b9250506020610bf585828601610af5565b9150509250929050565b610c0881611278565b82525050565b6000610c1b602983611152565b91507f416c6c2062657474657273206465706f73697465642074686569722066756e6460008301527f7320616c726561647900000000000000000000000000000000000000000000006020830152604082019050919050565b6000610c81602683611152565b91507f4f776e61626c653a206e6577206f776e657220697320746865207a65726f206160008301527f64647265737300000000000000000000000000000000000000000000000000006020830152604082019050919050565b6000610ce7603083611152565b91507f4265747465727320686176652079657420746f206465706f736974207468656960008301527f72204e6577546f6b656e2066756e6473000000000000000000000000000000006020830152604082019050919050565b6000610d4d602f83611152565b91507f506c6561736520656e73757265207468617420796f752068617665207375666660008301527f696369656e74204e6577546f6b656e00000000000000000000000000000000006020830152604082019050919050565b6000610db3602283611152565b91507f4265747465722068617320706c616365642061206265742070726576696f757360008301527f6c790000000000000000000000000000000000000000000000000000000000006020830152604082019050919050565b6000610e19602083611152565b91507f4f776e61626c653a2063616c6c6572206973206e6f7420746865206f776e65726000830152602082019050919050565b6000610e59608483611152565b91507f506c6561736520656e73757265207468617420796f752063616c6c206164644660008301527f756e6473207769746820612063686f6963652076616c7565206f66206569746860208301527f65722031206f7220302c207768657265203120696d706c69657320686967686560408301527f72207468616e207468726573686f6c6420616e64203020696d706c696573206c60608301527f6f77657200000000000000000000000000000000000000000000000000000000608083015260a082019050919050565b6000610f31607883611152565b91507f506c6561736520656e73757265207468617420796f752063616c6c206469736260008301527f7572736546756e64732077697468206569746865722030206f7220312c20776860208301527f657265203120696d706c69657320686967686572207468616e2074687265736860408301527f6f6c6420616e64203020696d706c696573206c6f7765722e00000000000000006060830152608082019050919050565b610fdf816112b6565b82525050565b6000602082019050610ffa6000830184610bff565b92915050565b60006060820190506110156000830186610bff565b6110226020830185610bff565b61102f6040830184610fd6565b949350505050565b6000602082019050818103600083015261105081610c0e565b9050919050565b6000602082019050818103600083015261107081610c74565b9050919050565b6000602082019050818103600083015261109081610cda565b9050919050565b600060208201905081810360008301526110b081610d40565b9050919050565b600060208201905081810360008301526110d081610da6565b9050919050565b600060208201905081810360008301526110f081610e0c565b9050919050565b6000602082019050818103600083015261111081610e4c565b9050919050565b6000602082019050818103600083015261113081610f24565b9050919050565b600060208201905061114c6000830184610fd6565b92915050565b600082825260208201905092915050565b600061116e826112b6565b9150611179836112b6565b9250827fffffffffffffffffffffffffffffffffffffffffffffffffffffffffffffffff038211156111ae576111ad611309565b5b828201905092915050565b60006111c4826112b6565b91506111cf836112b6565b9250826111df576111de611338565b5b828204905092915050565b60006111f5826112b6565b9150611200836112b6565b9250817fffffffffffffffffffffffffffffffffffffffffffffffffffffffffffffffff048311821515161561123957611238611309565b5b828202905092915050565b600061124f826112b6565b915061125a836112b6565b92508282101561126d5761126c611309565b5b828203905092915050565b600061128382611296565b9050919050565b60008115159050919050565b600073ffffffffffffffffffffffffffffffffffffffff82169050919050565b6000819050919050565b60006112cb826112b6565b91507fffffffffffffffffffffffffffffffffffffffffffffffffffffffffffffffff8214156112fe576112fd611309565b5b600182019050919050565b7f4e487b7100000000000000000000000000000000000000000000000000000000600052601160045260246000fd5b7f4e487b7100000000000000000000000000000000000000000000000000000000600052601260045260246000fd5b61137081611278565b811461137b57600080fd5b50565b6113878161128a565b811461139257600080fd5b50565b61139e816112b6565b81146113a957600080fd5b5056fea2646970667358221220bd63dda3ed4c913455876f7f127232be396cac48babd38ddce650eff4606b56c64736f6c63430008000033",
  "linkReferences": {},
  "deployedLinkReferences": {}
}