{
  "_format": "hh-sol-artifact-1",
  "contractName": "Betting",
  "sourceName": "contracts/Betting.sol",
  "abi": [
    {
      "inputs": [
        {
          "internalType": "address",
          "name": "token",
          "type": "address"
        },
        {
          "internalType": "address",
          "name": "oracle",
          "type": "address"
        },
        {
          "internalType": "uint256",
          "name": "refreshInterval",
          "type": "uint256"
        }
      ],
      "stateMutability": "nonpayable",
      "type": "constructor"
    },
    {
      "anonymous": false,
      "inputs": [
        {
          "indexed": true,
          "internalType": "address",
          "name": "previousOwner",
          "type": "address"
        },
        {
          "indexed": true,
          "internalType": "address",
          "name": "newOwner",
          "type": "address"
        }
      ],
      "name": "OwnershipTransferred",
      "type": "event"
    },
    {
      "inputs": [
        {
          "internalType": "uint256",
          "name": "value",
          "type": "uint256"
        },
        {
          "internalType": "uint256",
          "name": "choice",
          "type": "uint256"
        }
      ],
      "name": "addFunds",
      "outputs": [],
      "stateMutability": "payable",
      "type": "function"
    },
    {
      "inputs": [
        {
          "internalType": "bytes",
          "name": "",
          "type": "bytes"
        }
      ],
      "name": "checkUpkeep",
      "outputs": [
        {
          "internalType": "bool",
          "name": "upkeepNeeded",
          "type": "bool"
        },
        {
          "internalType": "bytes",
          "name": "performData",
          "type": "bytes"
        }
      ],
      "stateMutability": "view",
      "type": "function"
    },
    {
      "inputs": [
        {
          "internalType": "uint256",
          "name": "choice",
          "type": "uint256"
        }
      ],
      "name": "disburseFunds",
      "outputs": [],
      "stateMutability": "nonpayable",
      "type": "function"
    },
    {
      "inputs": [],
      "name": "getBetPrice",
      "outputs": [
        {
          "internalType": "uint256",
          "name": "",
          "type": "uint256"
        },
        {
          "internalType": "uint256",
          "name": "",
          "type": "uint256"
        }
      ],
      "stateMutability": "view",
      "type": "function"
    },
    {
      "inputs": [],
      "name": "getNumPlayers",
      "outputs": [
        {
          "internalType": "uint256",
          "name": "",
          "type": "uint256"
        }
      ],
      "stateMutability": "view",
      "type": "function"
    },
    {
      "inputs": [],
      "name": "getTotalFunds",
      "outputs": [
        {
          "internalType": "uint256",
          "name": "",
          "type": "uint256"
        }
      ],
      "stateMutability": "view",
      "type": "function"
    },
    {
      "inputs": [],
      "name": "getUserBetChoice",
      "outputs": [
        {
          "internalType": "uint256",
          "name": "",
          "type": "uint256"
        },
        {
          "internalType": "uint256",
          "name": "",
          "type": "uint256"
        }
      ],
      "stateMutability": "view",
      "type": "function"
    },
    {
      "inputs": [],
      "name": "owner",
      "outputs": [
        {
          "internalType": "address",
          "name": "",
          "type": "address"
        }
      ],
      "stateMutability": "view",
      "type": "function"
    },
    {
      "inputs": [
        {
          "internalType": "bytes",
          "name": "",
          "type": "bytes"
        }
      ],
      "name": "performUpkeep",
      "outputs": [],
      "stateMutability": "nonpayable",
      "type": "function"
    },
    {
      "inputs": [],
      "name": "renounceOwnership",
      "outputs": [],
      "stateMutability": "nonpayable",
      "type": "function"
    },
    {
      "inputs": [
        {
          "internalType": "address",
          "name": "newOwner",
          "type": "address"
        }
      ],
      "name": "transferOwnership",
      "outputs": [],
      "stateMutability": "nonpayable",
      "type": "function"
    }
  ],
  "bytecode": "0x60a06040523480156200001157600080fd5b506040516200232b3803806200232b8339818101604052810190620000379190620003ac565b620000576200004b6200028260201b60201c565b6200028a60201b60201c565b33600160006101000a81548173ffffffffffffffffffffffffffffffffffffffff021916908373ffffffffffffffffffffffffffffffffffffffff16021790555082600a60006101000a81548173ffffffffffffffffffffffffffffffffffffffff021916908373ffffffffffffffffffffffffffffffffffffffff16021790555081600b60006101000a81548173ffffffffffffffffffffffffffffffffffffffff021916908373ffffffffffffffffffffffffffffffffffffffff160217905550600b60009054906101000a900473ffffffffffffffffffffffffffffffffffffffff1673ffffffffffffffffffffffffffffffffffffffff16638e15f4736040518163ffffffff1660e01b815260040160206040518083038186803b1580156200018357600080fd5b505afa15801562000198573d6000803e3d6000fd5b505050506040513d601f19601f82011682018060405250810190620001be919062000402565b60068190555062000211620001fd620001e96006546305f5e1006200034e60201b62000e061760201c565b6103ed6200036660201b62000e1c1760201c565b6103e86200034e60201b62000e061760201c565b60078190555062000264620002506200023c6006546305f5e1006200034e60201b62000e061760201c565b6103e36200036660201b62000e1c1760201c565b6103e86200034e60201b62000e061760201c565b60088190555080608081815250504260058190555050505062000597565b600033905090565b60008060009054906101000a900473ffffffffffffffffffffffffffffffffffffffff169050816000806101000a81548173ffffffffffffffffffffffffffffffffffffffff021916908373ffffffffffffffffffffffffffffffffffffffff1602179055508173ffffffffffffffffffffffffffffffffffffffff168173ffffffffffffffffffffffffffffffffffffffff167f8be0079c531659141344cd1fd0a4f28419497f9722a3daafe3b4186f6b6457e060405160405180910390a35050565b600081836200035e91906200042e565b905092915050565b6000818362000376919062000466565b905092915050565b6000815190506200038f8162000563565b92915050565b600081519050620003a6816200057d565b92915050565b600080600060608486031215620003c257600080fd5b6000620003d2868287016200037e565b9350506020620003e5868287016200037e565b9250506040620003f88682870162000395565b9150509250925092565b6000602082840312156200041557600080fd5b6000620004258482850162000395565b91505092915050565b60006200043b82620004fb565b91506200044883620004fb565b9250826200045b576200045a62000534565b5b828204905092915050565b60006200047382620004fb565b91506200048083620004fb565b9250817fffffffffffffffffffffffffffffffffffffffffffffffffffffffffffffffff0483118215151615620004bc57620004bb62000505565b5b828202905092915050565b6000620004d482620004db565b9050919050565b600073ffffffffffffffffffffffffffffffffffffffff82169050919050565b6000819050919050565b7f4e487b7100000000000000000000000000000000000000000000000000000000600052601160045260246000fd5b7f4e487b7100000000000000000000000000000000000000000000000000000000600052601260045260246000fd5b6200056e81620004c7565b81146200057a57600080fd5b50565b6200058881620004fb565b81146200059457600080fd5b50565b608051611d71620005ba6000396000818161033a01526104dc0152611d716000f3fe60806040526004361061009c5760003560e01c806385f452501161006457806385f45250146101765780638da5cb5b14610192578063cc212a48146101bd578063db5ea892146101e6578063eb8bbd2814610212578063f2fde38b1461023d5761009c565b80631fdc3417146100a15780634585e33b146100cd57806355c9e926146100f65780636e04ff0d14610121578063715018a61461015f575b600080fd5b3480156100ad57600080fd5b506100b6610266565b6040516100c4929190611a58565b60405180910390f35b3480156100d957600080fd5b506100f460048036038101906100ef9190611477565b610338565b005b34801561010257600080fd5b5061010b6104cc565b6040516101189190611a3d565b60405180910390f35b34801561012d57600080fd5b5061014860048036038101906101439190611477565b6104d6565b60405161015692919061194d565b60405180910390f35b34801561016b57600080fd5b50610174610525565b005b610190600480360381019061018b919061150e565b610539565b005b34801561019e57600080fd5b506101a7610901565b6040516101b491906118d2565b60405180910390f35b3480156101c957600080fd5b506101e460048036038101906101df91906114bc565b61092a565b005b3480156101f257600080fd5b506101fb610d67565b604051610209929190611a58565b60405180910390f35b34801561021e57600080fd5b50610227610d78565b6040516102349190611a3d565b60405180910390f35b34801561024957600080fd5b50610264600480360381019061025f9190611425565b610d82565b005b60008060005b60025481101561032b576009600082815260200190815260200160002060000160009054906101000a900473ffffffffffffffffffffffffffffffffffffffff1673ffffffffffffffffffffffffffffffffffffffff163373ffffffffffffffffffffffffffffffffffffffff16141561031857600960008281526020019081526020016000206001015460096000838152602001908152602001600020600201549250925050610334565b808061032390611c3e565b91505061026c565b50600080915091505b9091565b7f0000000000000000000000000000000000000000000000000000000000000000600554426103679190611b8f565b11156104c85742600581905550600b60009054906101000a900473ffffffffffffffffffffffffffffffffffffffff1673ffffffffffffffffffffffffffffffffffffffff16638e15f4736040518163ffffffff1660e01b815260040160206040518083038186803b1580156103dc57600080fd5b505afa1580156103f0573d6000803e3d6000fd5b505050506040513d601f19601f8201168201806040525081019061041491906114e5565b600681905550600060085461042f6006546305f5e100610e06565b111561045d576007546104486006546305f5e100610e06565b1015610455576002610458565b60015b610460565b60005b60ff16905061046e81610e32565b61049461048c6104846006546305f5e100610e06565b6103ed610e1c565b6103e8610e06565b6007819055506104c06104b86104b06006546305f5e100610e06565b6103e3610e1c565b6103e8610e06565b600881905550505b5050565b6000600254905090565b600060607f0000000000000000000000000000000000000000000000000000000000000000600554426105099190611b8f565b1191506040518060200160405280600081525090509250929050565b61052d611227565b61053760006112a5565b565b3360006001905060005b6002548110156105cf578273ffffffffffffffffffffffffffffffffffffffff166009600083815260200190815260200160002060000160009054906101000a900473ffffffffffffffffffffffffffffffffffffffff1673ffffffffffffffffffffffffffffffffffffffff1614156105bc57600091505b80806105c790611c3e565b915050610543565b5080610610576040517f08c379a0000000000000000000000000000000000000000000000000000000008152600401610607906119dd565b60405180910390fd5b83600a60009054906101000a900473ffffffffffffffffffffffffffffffffffffffff1673ffffffffffffffffffffffffffffffffffffffff166370a08231336040518263ffffffff1660e01b815260040161066c91906118d2565b60206040518083038186803b15801561068457600080fd5b505afa158015610698573d6000803e3d6000fd5b505050506040513d601f19601f820116820180604052508101906106bc91906114e5565b10156106fd576040517f08c379a00000000000000000000000000000000000000000000000000000000081526004016106f4906119bd565b60405180910390fd5b600183141561073d5783600460008282546107189190611aae565b9250508190555083600360008282546107319190611aae565b925050819055506107a0565b60008314156107645783600360008282546107589190611aae565b9250508190555061079f565b6040517f08c379a000000000000000000000000000000000000000000000000000000000815260040161079690611a1d565b60405180910390fd5b5b600a60009054906101000a900473ffffffffffffffffffffffffffffffffffffffff1673ffffffffffffffffffffffffffffffffffffffff166323b872dd3330876040518463ffffffff1660e01b81526004016107ff939291906118ed565b602060405180830381600087803b15801561081957600080fd5b505af115801561082d573d6000803e3d6000fd5b505050506040513d601f19601f82011682018060405250810190610851919061144e565b503360096000600254815260200190815260200160002060000160006101000a81548173ffffffffffffffffffffffffffffffffffffffff021916908373ffffffffffffffffffffffffffffffffffffffff16021790555083600960006002548152602001908152602001600020600101819055508260096000600254815260200190815260200160002060020181905550600260008154809291906108f690611c3e565b919050555050505050565b60008060009054906101000a900473ffffffffffffffffffffffffffffffffffffffff16905090565b610932611227565b6000600282148061094557506000600254145b8061095257506000600354145b8061096c575060045460035414801561096b5750600082145b5b80610985575060006004541480156109845750600182145b5b15610b1b5760005b600254811015610afc57600a60009054906101000a900473ffffffffffffffffffffffffffffffffffffffff1673ffffffffffffffffffffffffffffffffffffffff1663a9059cbb6009600084815260200190815260200160002060000160009054906101000a900473ffffffffffffffffffffffffffffffffffffffff1660096000858152602001908152602001600020600101546040518363ffffffff1660e01b8152600401610a40929190611924565b602060405180830381600087803b158015610a5a57600080fd5b505af1158015610a6e573d6000803e3d6000fd5b505050506040513d601f19601f82011682018060405250810190610a92919061144e565b5060006009600083815260200190815260200160002060000160006101000a81548173ffffffffffffffffffffffffffffffffffffffff021916908373ffffffffffffffffffffffffffffffffffffffff1602179055508080610af490611c3e565b91505061098d565b5060006002819055506000600481905550600060038190555050610d64565b6001821415610b2e576004549050610b88565b6000821415610b4c57610b45600354600454611369565b9050610b87565b6040517f08c379a0000000000000000000000000000000000000000000000000000000008152600401610b7e9061197d565b60405180910390fd5b5b6000610ba1610b9b6003546103e8610e1c565b83610e06565b905060005b600254811015610d48578360096000838152602001908152602001600020600201541415610cdf57600a60009054906101000a900473ffffffffffffffffffffffffffffffffffffffff1673ffffffffffffffffffffffffffffffffffffffff1663a9059cbb6009600084815260200190815260200160002060000160009054906101000a900473ffffffffffffffffffffffffffffffffffffffff16610c6e610c66600960008781526020019081526020016000206001015487610e1c565b6103e8610e06565b6040518363ffffffff1660e01b8152600401610c8b929190611924565b602060405180830381600087803b158015610ca557600080fd5b505af1158015610cb9573d6000803e3d6000fd5b505050506040513d601f19601f82011682018060405250810190610cdd919061144e565b505b60006009600083815260200190815260200160002060000160006101000a81548173ffffffffffffffffffffffffffffffffffffffff021916908373ffffffffffffffffffffffffffffffffffffffff1602179055508080610d4090611c3e565b915050610ba6565b5060006002819055506000600481905550600060038190555050505b50565b600080600854600754915091509091565b6000600354905090565b610d8a611227565b600073ffffffffffffffffffffffffffffffffffffffff168173ffffffffffffffffffffffffffffffffffffffff161415610dfa576040517f08c379a0000000000000000000000000000000000000000000000000000000008152600401610df19061199d565b60405180910390fd5b610e03816112a5565b50565b60008183610e149190611b04565b905092915050565b60008183610e2a9190611b35565b905092915050565b6002811480610e4357506000600254145b80610e5057506000600354145b80610e6a5750600454600354148015610e695750600081145b5b80610e8357506000600454148015610e825750600181145b5b156110185760005b600254811015610ffa57600a60009054906101000a900473ffffffffffffffffffffffffffffffffffffffff1673ffffffffffffffffffffffffffffffffffffffff1663a9059cbb6009600084815260200190815260200160002060000160009054906101000a900473ffffffffffffffffffffffffffffffffffffffff1660096000858152602001908152602001600020600101546040518363ffffffff1660e01b8152600401610f3e929190611924565b602060405180830381600087803b158015610f5857600080fd5b505af1158015610f6c573d6000803e3d6000fd5b505050506040513d601f19601f82011682018060405250810190610f90919061144e565b5060006009600083815260200190815260200160002060000160006101000a81548173ffffffffffffffffffffffffffffffffffffffff021916908373ffffffffffffffffffffffffffffffffffffffff1602179055508080610ff290611c3e565b915050610e8b565b50600060028190555060006004819055506000600381905550611224565b6000600182141561102d576004549050611048565b600082141561104757611044600354600454611369565b90505b5b600061106161105b6003546103e8610e1c565b83610e06565b905060005b60025481101561120857836009600083815260200190815260200160002060020154141561119f57600a60009054906101000a900473ffffffffffffffffffffffffffffffffffffffff1673ffffffffffffffffffffffffffffffffffffffff1663a9059cbb6009600084815260200190815260200160002060000160009054906101000a900473ffffffffffffffffffffffffffffffffffffffff1661112e611126600960008781526020019081526020016000206001015487610e1c565b6103e8610e06565b6040518363ffffffff1660e01b815260040161114b929190611924565b602060405180830381600087803b15801561116557600080fd5b505af1158015611179573d6000803e3d6000fd5b505050506040513d601f19601f8201168201806040525081019061119d919061144e565b505b60006009600083815260200190815260200160002060000160006101000a81548173ffffffffffffffffffffffffffffffffffffffff021916908373ffffffffffffffffffffffffffffffffffffffff160217905550808061120090611c3e565b915050611066565b5060006002819055506000600481905550600060038190555050505b50565b61122f61137f565b73ffffffffffffffffffffffffffffffffffffffff1661124d610901565b73ffffffffffffffffffffffffffffffffffffffff16146112a3576040517f08c379a000000000000000000000000000000000000000000000000000000000815260040161129a906119fd565b60405180910390fd5b565b60008060009054906101000a900473ffffffffffffffffffffffffffffffffffffffff169050816000806101000a81548173ffffffffffffffffffffffffffffffffffffffff021916908373ffffffffffffffffffffffffffffffffffffffff1602179055508173ffffffffffffffffffffffffffffffffffffffff168173ffffffffffffffffffffffffffffffffffffffff167f8be0079c531659141344cd1fd0a4f28419497f9722a3daafe3b4186f6b6457e060405160405180910390a35050565b600081836113779190611b8f565b905092915050565b600033905090565b60008135905061139681611cf6565b92915050565b6000815190506113ab81611d0d565b92915050565b60008083601f8401126113c357600080fd5b8235905067ffffffffffffffff8111156113dc57600080fd5b6020830191508360018202830111156113f457600080fd5b9250929050565b60008135905061140a81611d24565b92915050565b60008151905061141f81611d24565b92915050565b60006020828403121561143757600080fd5b600061144584828501611387565b91505092915050565b60006020828403121561146057600080fd5b600061146e8482850161139c565b91505092915050565b6000806020838503121561148a57600080fd5b600083013567ffffffffffffffff8111156114a457600080fd5b6114b0858286016113b1565b92509250509250929050565b6000602082840312156114ce57600080fd5b60006114dc848285016113fb565b91505092915050565b6000602082840312156114f757600080fd5b600061150584828501611410565b91505092915050565b6000806040838503121561152157600080fd5b600061152f858286016113fb565b9250506020611540858286016113fb565b9150509250929050565b61155381611bc3565b82525050565b61156281611bd5565b82525050565b600061157382611a81565b61157d8185611a8c565b935061158d818560208601611c0b565b61159681611ce5565b840191505092915050565b60006115ae608183611a9d565b91507f506c6561736520656e73757265207468617420796f752063616c6c206469736260008301527f7572736546756e647320776974682065697468657220302c2031206f7220322c60208301527f207768657265203220696d706c696573206e6f206368616e67652c203120696d60408301527f706c6965732068696768657220616e64203020696d706c696573206c6f77657260608301527f2e00000000000000000000000000000000000000000000000000000000000000608083015260a082019050919050565b6000611686602683611a9d565b91507f4f776e61626c653a206e6577206f776e657220697320746865207a65726f206160008301527f64647265737300000000000000000000000000000000000000000000000000006020830152604082019050919050565b60006116ec602f83611a9d565b91507f506c6561736520656e73757265207468617420796f752068617665207375666660008301527f696369656e74204e6577546f6b656e00000000000000000000000000000000006020830152604082019050919050565b6000611752602283611a9d565b91507f4265747465722068617320706c616365642061206265742070726576696f757360008301527f6c790000000000000000000000000000000000000000000000000000000000006020830152604082019050919050565b60006117b8602083611a9d565b91507f4f776e61626c653a2063616c6c6572206973206e6f7420746865206f776e65726000830152602082019050919050565b60006117f8608483611a9d565b91507f506c6561736520656e73757265207468617420796f752063616c6c206164644660008301527f756e6473207769746820612063686f6963652076616c7565206f66206569746860208301527f65722031206f7220302c207768657265203120696d706c69657320686967686560408301527f72207468616e207468726573686f6c6420616e64203020696d706c696573206c60608301527f6f77657200000000000000000000000000000000000000000000000000000000608083015260a082019050919050565b6118cc81611c01565b82525050565b60006020820190506118e7600083018461154a565b92915050565b6000606082019050611902600083018661154a565b61190f602083018561154a565b61191c60408301846118c3565b949350505050565b6000604082019050611939600083018561154a565b61194660208301846118c3565b9392505050565b60006040820190506119626000830185611559565b81810360208301526119748184611568565b90509392505050565b60006020820190508181036000830152611996816115a1565b9050919050565b600060208201905081810360008301526119b681611679565b9050919050565b600060208201905081810360008301526119d6816116df565b9050919050565b600060208201905081810360008301526119f681611745565b9050919050565b60006020820190508181036000830152611a16816117ab565b9050919050565b60006020820190508181036000830152611a36816117eb565b9050919050565b6000602082019050611a5260008301846118c3565b92915050565b6000604082019050611a6d60008301856118c3565b611a7a60208301846118c3565b9392505050565b600081519050919050565b600082825260208201905092915050565b600082825260208201905092915050565b6000611ab982611c01565b9150611ac483611c01565b9250827fffffffffffffffffffffffffffffffffffffffffffffffffffffffffffffffff03821115611af957611af8611c87565b5b828201905092915050565b6000611b0f82611c01565b9150611b1a83611c01565b925082611b2a57611b29611cb6565b5b828204905092915050565b6000611b4082611c01565b9150611b4b83611c01565b9250817fffffffffffffffffffffffffffffffffffffffffffffffffffffffffffffffff0483118215151615611b8457611b83611c87565b5b828202905092915050565b6000611b9a82611c01565b9150611ba583611c01565b925082821015611bb857611bb7611c87565b5b828203905092915050565b6000611bce82611be1565b9050919050565b60008115159050919050565b600073ffffffffffffffffffffffffffffffffffffffff82169050919050565b6000819050919050565b60005b83811015611c29578082015181840152602081019050611c0e565b83811115611c38576000848401525b50505050565b6000611c4982611c01565b91507fffffffffffffffffffffffffffffffffffffffffffffffffffffffffffffffff821415611c7c57611c7b611c87565b5b600182019050919050565b7f4e487b7100000000000000000000000000000000000000000000000000000000600052601160045260246000fd5b7f4e487b7100000000000000000000000000000000000000000000000000000000600052601260045260246000fd5b6000601f19601f8301169050919050565b611cff81611bc3565b8114611d0a57600080fd5b50565b611d1681611bd5565b8114611d2157600080fd5b50565b611d2d81611c01565b8114611d3857600080fd5b5056fea2646970667358221220100e0a25c8808abcd66bc6d93110e0464a1d304a113b763f86a51be957cedb9864736f6c63430008000033",
  "linkReferences": {},
  "deployedLinkReferences": {}
}