{
  "_format": "hh-sol-artifact-1",
  "contractName": "Betting",
  "sourceName": "contracts/Betting.sol",
  "abi": [
    {
      "inputs": [
        {
          "internalType": "contract NewToken",
          "name": "token",
          "type": "address"
        },
        {
          "internalType": "uint256",
          "name": "maxNumPlayers",
          "type": "uint256"
        }
      ],
      "stateMutability": "nonpayable",
      "type": "constructor"
    },
    {
      "anonymous": false,
      "inputs": [
        {
          "indexed": true,
          "internalType": "address",
          "name": "previousOwner",
          "type": "address"
        },
        {
          "indexed": true,
          "internalType": "address",
          "name": "newOwner",
          "type": "address"
        }
      ],
      "name": "OwnershipTransferred",
      "type": "event"
    },
    {
      "inputs": [
        {
          "internalType": "uint256",
          "name": "value",
          "type": "uint256"
        },
        {
          "internalType": "uint256",
          "name": "choice",
          "type": "uint256"
        }
      ],
      "name": "addFunds",
      "outputs": [],
      "stateMutability": "payable",
      "type": "function"
    },
    {
      "inputs": [
        {
          "internalType": "uint256",
          "name": "choice",
          "type": "uint256"
        }
      ],
      "name": "disburseFunds",
      "outputs": [],
      "stateMutability": "nonpayable",
      "type": "function"
    },
    {
      "inputs": [],
      "name": "owner",
      "outputs": [
        {
          "internalType": "address",
          "name": "",
          "type": "address"
        }
      ],
      "stateMutability": "view",
      "type": "function"
    },
    {
      "inputs": [],
      "name": "renounceOwnership",
      "outputs": [],
      "stateMutability": "nonpayable",
      "type": "function"
    },
    {
      "inputs": [
        {
          "internalType": "address",
          "name": "newOwner",
          "type": "address"
        }
      ],
      "name": "transferOwnership",
      "outputs": [],
      "stateMutability": "nonpayable",
      "type": "function"
    }
  ],
  "bytecode": "0x60806040523480156200001157600080fd5b50604051620015f0380380620015f08339818101604052810190620000379190620001e2565b620000576200004b620000e860201b60201c565b620000f060201b60201c565b33600160006101000a81548173ffffffffffffffffffffffffffffffffffffffff021916908373ffffffffffffffffffffffffffffffffffffffff16021790555081600760006101000a81548173ffffffffffffffffffffffffffffffffffffffff021916908373ffffffffffffffffffffffffffffffffffffffff160217905550806003819055505050620002a9565b600033905090565b60008060009054906101000a900473ffffffffffffffffffffffffffffffffffffffff169050816000806101000a81548173ffffffffffffffffffffffffffffffffffffffff021916908373ffffffffffffffffffffffffffffffffffffffff1602179055508173ffffffffffffffffffffffffffffffffffffffff168173ffffffffffffffffffffffffffffffffffffffff167f8be0079c531659141344cd1fd0a4f28419497f9722a3daafe3b4186f6b6457e060405160405180910390a35050565b600081519050620001c58162000275565b92915050565b600081519050620001dc816200028f565b92915050565b60008060408385031215620001f657600080fd5b60006200020685828601620001b4565b92505060206200021985828601620001cb565b9150509250929050565b600062000230826200024b565b9050919050565b6000620002448262000223565b9050919050565b600073ffffffffffffffffffffffffffffffffffffffff82169050919050565b6000819050919050565b620002808162000237565b81146200028c57600080fd5b50565b6200029a816200026b565b8114620002a657600080fd5b50565b61133780620002b96000396000f3fe60806040526004361061004a5760003560e01c8063715018a61461004f57806385f45250146100665780638da5cb5b14610082578063cc212a48146100ad578063f2fde38b146100d6575b600080fd5b34801561005b57600080fd5b506100646100ff565b005b610080600480360381019061007b9190610b33565b610113565b005b34801561008e57600080fd5b50610097610543565b6040516100a49190610f55565b60405180910390f35b3480156100b957600080fd5b506100d460048036038101906100cf9190610ae1565b61056c565b005b3480156100e257600080fd5b506100fd60048036038101906100f89190610a8f565b61082b565b005b6101076108af565b610111600061092d565b565b60035460025410610159576040517f08c379a000000000000000000000000000000000000000000000000000000000815260040161015090610fa7565b60405180910390fd5b3360006001905060005b6002548110156101ef578273ffffffffffffffffffffffffffffffffffffffff166006600083815260200190815260200160002060000160009054906101000a900473ffffffffffffffffffffffffffffffffffffffff1673ffffffffffffffffffffffffffffffffffffffff1614156101dc57600091505b80806101e790611215565b915050610163565b5080610230576040517f08c379a000000000000000000000000000000000000000000000000000000000815260040161022790611027565b60405180910390fd5b600183141561027057836005600082825461024b91906110b8565b92505081905550836004600082825461026491906110b8565b925050819055506102d3565b600083141561029757836004600082825461028b91906110b8565b925050819055506102d2565b6040517f08c379a00000000000000000000000000000000000000000000000000000000081526004016102c990611067565b60405180910390fd5b5b83600760009054906101000a900473ffffffffffffffffffffffffffffffffffffffff1673ffffffffffffffffffffffffffffffffffffffff166370a08231336040518263ffffffff1660e01b815260040161032f9190610f55565b60206040518083038186803b15801561034757600080fd5b505afa15801561035b573d6000803e3d6000fd5b505050506040513d601f19601f8201168201806040525081019061037f9190610b0a565b10156103c0576040517f08c379a00000000000000000000000000000000000000000000000000000000081526004016103b790611007565b60405180910390fd5b600760009054906101000a900473ffffffffffffffffffffffffffffffffffffffff1673ffffffffffffffffffffffffffffffffffffffff166323b872dd33600160009054906101000a900473ffffffffffffffffffffffffffffffffffffffff16876040518463ffffffff1660e01b815260040161044193929190610f70565b602060405180830381600087803b15801561045b57600080fd5b505af115801561046f573d6000803e3d6000fd5b505050506040513d601f19601f820116820180604052508101906104939190610ab8565b503360066000600254815260200190815260200160002060000160006101000a81548173ffffffffffffffffffffffffffffffffffffffff021916908373ffffffffffffffffffffffffffffffffffffffff160217905550836006600060025481526020019081526020016000206001018190555082600660006002548152602001908152602001600020600201819055506002600081548092919061053890611215565b919050555050505050565b60008060009054906101000a900473ffffffffffffffffffffffffffffffffffffffff16905090565b6105746108af565b600354600254146105ba576040517f08c379a00000000000000000000000000000000000000000000000000000000081526004016105b190610fe7565b60405180910390fd5b600060018214156105cf576005549050610629565b60008214156105ed576105e66004546005546109f1565b9050610628565b6040517f08c379a000000000000000000000000000000000000000000000000000000000815260040161061f90611087565b60405180910390fd5b5b600061064261063c6004546103e8610a07565b83610a1d565b905060005b60035481101561080d5783600660008381526020019081526020016000206002015414156107a457600760009054906101000a900473ffffffffffffffffffffffffffffffffffffffff1673ffffffffffffffffffffffffffffffffffffffff166323b872dd600160009054906101000a900473ffffffffffffffffffffffffffffffffffffffff166006600085815260200190815260200160002060000160009054906101000a900473ffffffffffffffffffffffffffffffffffffffff1661073261072a600660008881526020019081526020016000206001015488610a07565b6103e8610a1d565b6040518463ffffffff1660e01b815260040161075093929190610f70565b602060405180830381600087803b15801561076a57600080fd5b505af115801561077e573d6000803e3d6000fd5b505050506040513d601f19601f820116820180604052508101906107a29190610ab8565b505b60006006600083815260200190815260200160002060000160006101000a81548173ffffffffffffffffffffffffffffffffffffffff021916908373ffffffffffffffffffffffffffffffffffffffff160217905550808061080590611215565b915050610647565b50600060028190555060006005819055506000600481905550505050565b6108336108af565b600073ffffffffffffffffffffffffffffffffffffffff168173ffffffffffffffffffffffffffffffffffffffff1614156108a3576040517f08c379a000000000000000000000000000000000000000000000000000000000815260040161089a90610fc7565b60405180910390fd5b6108ac8161092d565b50565b6108b7610a33565b73ffffffffffffffffffffffffffffffffffffffff166108d5610543565b73ffffffffffffffffffffffffffffffffffffffff161461092b576040517f08c379a000000000000000000000000000000000000000000000000000000000815260040161092290611047565b60405180910390fd5b565b60008060009054906101000a900473ffffffffffffffffffffffffffffffffffffffff169050816000806101000a81548173ffffffffffffffffffffffffffffffffffffffff021916908373ffffffffffffffffffffffffffffffffffffffff1602179055508173ffffffffffffffffffffffffffffffffffffffff168173ffffffffffffffffffffffffffffffffffffffff167f8be0079c531659141344cd1fd0a4f28419497f9722a3daafe3b4186f6b6457e060405160405180910390a35050565b600081836109ff9190611199565b905092915050565b60008183610a15919061113f565b905092915050565b60008183610a2b919061110e565b905092915050565b600033905090565b600081359050610a4a816112bc565b92915050565b600081519050610a5f816112d3565b92915050565b600081359050610a74816112ea565b92915050565b600081519050610a89816112ea565b92915050565b600060208284031215610aa157600080fd5b6000610aaf84828501610a3b565b91505092915050565b600060208284031215610aca57600080fd5b6000610ad884828501610a50565b91505092915050565b600060208284031215610af357600080fd5b6000610b0184828501610a65565b91505092915050565b600060208284031215610b1c57600080fd5b6000610b2a84828501610a7a565b91505092915050565b60008060408385031215610b4657600080fd5b6000610b5485828601610a65565b9250506020610b6585828601610a65565b9150509250929050565b610b78816111cd565b82525050565b6000610b8b6029836110a7565b91507f416c6c2062657474657273206465706f73697465642074686569722066756e6460008301527f7320616c726561647900000000000000000000000000000000000000000000006020830152604082019050919050565b6000610bf16026836110a7565b91507f4f776e61626c653a206e6577206f776e657220697320746865207a65726f206160008301527f64647265737300000000000000000000000000000000000000000000000000006020830152604082019050919050565b6000610c576030836110a7565b91507f4265747465727320686176652079657420746f206465706f736974207468656960008301527f72204e6577546f6b656e2066756e6473000000000000000000000000000000006020830152604082019050919050565b6000610cbd602f836110a7565b91507f506c6561736520656e73757265207468617420796f752068617665207375666660008301527f696369656e74204e6577546f6b656e00000000000000000000000000000000006020830152604082019050919050565b6000610d236022836110a7565b91507f4265747465722068617320706c616365642061206265742070726576696f757360008301527f6c790000000000000000000000000000000000000000000000000000000000006020830152604082019050919050565b6000610d896020836110a7565b91507f4f776e61626c653a2063616c6c6572206973206e6f7420746865206f776e65726000830152602082019050919050565b6000610dc96084836110a7565b91507f506c6561736520656e73757265207468617420796f752063616c6c206164644660008301527f756e6473207769746820612063686f6963652076616c7565206f66206569746860208301527f65722031206f7220302c207768657265203120696d706c69657320686967686560408301527f72207468616e207468726573686f6c6420616e64203020696d706c696573206c60608301527f6f77657200000000000000000000000000000000000000000000000000000000608083015260a082019050919050565b6000610ea16078836110a7565b91507f506c6561736520656e73757265207468617420796f752063616c6c206469736260008301527f7572736546756e64732077697468206569746865722030206f7220312c20776860208301527f657265203120696d706c69657320686967686572207468616e2074687265736860408301527f6f6c6420616e64203020696d706c696573206c6f7765722e00000000000000006060830152608082019050919050565b610f4f8161120b565b82525050565b6000602082019050610f6a6000830184610b6f565b92915050565b6000606082019050610f856000830186610b6f565b610f926020830185610b6f565b610f9f6040830184610f46565b949350505050565b60006020820190508181036000830152610fc081610b7e565b9050919050565b60006020820190508181036000830152610fe081610be4565b9050919050565b6000602082019050818103600083015261100081610c4a565b9050919050565b6000602082019050818103600083015261102081610cb0565b9050919050565b6000602082019050818103600083015261104081610d16565b9050919050565b6000602082019050818103600083015261106081610d7c565b9050919050565b6000602082019050818103600083015261108081610dbc565b9050919050565b600060208201905081810360008301526110a081610e94565b9050919050565b600082825260208201905092915050565b60006110c38261120b565b91506110ce8361120b565b9250827fffffffffffffffffffffffffffffffffffffffffffffffffffffffffffffffff038211156111035761110261125e565b5b828201905092915050565b60006111198261120b565b91506111248361120b565b9250826111345761113361128d565b5b828204905092915050565b600061114a8261120b565b91506111558361120b565b9250817fffffffffffffffffffffffffffffffffffffffffffffffffffffffffffffffff048311821515161561118e5761118d61125e565b5b828202905092915050565b60006111a48261120b565b91506111af8361120b565b9250828210156111c2576111c161125e565b5b828203905092915050565b60006111d8826111eb565b9050919050565b60008115159050919050565b600073ffffffffffffffffffffffffffffffffffffffff82169050919050565b6000819050919050565b60006112208261120b565b91507fffffffffffffffffffffffffffffffffffffffffffffffffffffffffffffffff8214156112535761125261125e565b5b600182019050919050565b7f4e487b7100000000000000000000000000000000000000000000000000000000600052601160045260246000fd5b7f4e487b7100000000000000000000000000000000000000000000000000000000600052601260045260246000fd5b6112c5816111cd565b81146112d057600080fd5b50565b6112dc816111df565b81146112e757600080fd5b50565b6112f38161120b565b81146112fe57600080fd5b5056fea26469706673582212206c61ccf0e1e8d9bbda99a129387beaf3b4cb32c715e22bd701a09808ba30c33264736f6c63430008000033",
  "linkReferences": {},
  "deployedLinkReferences": {}
}